{
  "contractName": "SolidityDrive",
  "abi": [
    {
      "constant": false,
      "inputs": [
        {
          "name": "_hash",
          "type": "string"
        },
        {
          "name": "_fileName",
          "type": "string"
        },
        {
          "name": "_fileType",
          "type": "string"
        },
        {
          "name": "_date",
          "type": "uint256"
        }
      ],
      "name": "add",
      "outputs": [],
      "payable": false,
      "stateMutability": "nonpayable",
      "type": "function",
      "signature": "0x3f647a97"
    },
    {
      "constant": true,
      "inputs": [
        {
          "name": "_index",
          "type": "uint256"
        }
      ],
      "name": "getFile",
      "outputs": [
        {
          "name": "",
          "type": "string"
        },
        {
          "name": "",
          "type": "string"
        },
        {
          "name": "",
          "type": "string"
        },
        {
          "name": "",
          "type": "uint256"
        }
      ],
      "payable": false,
      "stateMutability": "view",
      "type": "function",
      "signature": "0x2bfda313"
    },
    {
      "constant": true,
      "inputs": [],
      "name": "getLength",
      "outputs": [
        {
          "name": "",
          "type": "uint256"
        }
      ],
      "payable": false,
      "stateMutability": "view",
      "type": "function",
      "signature": "0xbe1c766b"
    },
    {
      "constant": false,
      "inputs": [
        {
          "name": "_index",
          "type": "uint256"
        }
      ],
      "name": "remove",
      "outputs": [
        {
          "name": "success",
          "type": "bool"
        }
      ],
      "payable": false,
      "stateMutability": "nonpayable",
      "type": "function",
      "signature": "0x4cc82215"
    }
  ],
  "bytecode": "0x608060405234801561001057600080fd5b50610c84806100206000396000f3fe608060405260043610610062576000357c0100000000000000000000000000000000000000000000000000000000900463ffffffff1680632bfda313146100675780633f647a97146101fa5780634cc82215146103fa578063be1c766b1461044d575b600080fd5b34801561007357600080fd5b506100a06004803603602081101561008a57600080fd5b8101908080359060200190929190505050610478565b60405180806020018060200180602001858152602001848103845288818151815260200191508051906020019080838360005b838110156100ee5780820151818401526020810190506100d3565b50505050905090810190601f16801561011b5780820380516001836020036101000a031916815260200191505b50848103835287818151815260200191508051906020019080838360005b83811015610154578082015181840152602081019050610139565b50505050905090810190601f1680156101815780820380516001836020036101000a031916815260200191505b50848103825286818151815260200191508051906020019080838360005b838110156101ba57808201518184015260208101905061019f565b50505050905090810190601f1680156101e75780820380516001836020036101000a031916815260200191505b5097505050505050505060405180910390f35b34801561020657600080fd5b506103f86004803603608081101561021d57600080fd5b810190808035906020019064010000000081111561023a57600080fd5b82018360208201111561024c57600080fd5b8035906020019184600183028401116401000000008311171561026e57600080fd5b91908080601f016020809104026020016040519081016040528093929190818152602001838380828437600081840152601f19601f820116905080830192505050505050509192919290803590602001906401000000008111156102d157600080fd5b8201836020820111156102e357600080fd5b8035906020019184600183028401116401000000008311171561030557600080fd5b91908080601f016020809104026020016040519081016040528093929190818152602001838380828437600081840152601f19601f8201169050808301925050505050505091929192908035906020019064010000000081111561036857600080fd5b82018360208201111561037a57600080fd5b8035906020019184600183028401116401000000008311171561039c57600080fd5b91908080601f016020809104026020016040519081016040528093929190818152602001838380828437600081840152601f19601f8201169050808301925050505050505091929192908035906020019092919050505061070b565b005b34801561040657600080fd5b506104336004803603602081101561041d57600080fd5b8101908080359060200190929190505050610800565b604051808215151515815260200191505060405180910390f35b34801561045957600080fd5b50610462610a72565b6040518082815260200191505060405180910390f35b60608060606000610487610abb565b6000803373ffffffffffffffffffffffffffffffffffffffff1673ffffffffffffffffffffffffffffffffffffffff168152602001908152602001600020868154811015156104d257fe5b906000526020600020906004020160806040519081016040529081600082018054600181600116156101000203166002900480601f0160208091040260200160405190810160405280929190818152602001828054600181600116156101000203166002900480156105855780601f1061055a57610100808354040283529160200191610585565b820191906000526020600020905b81548152906001019060200180831161056857829003601f168201915b50505050508152602001600182018054600181600116156101000203166002900480601f0160208091040260200160405190810160405280929190818152602001828054600181600116156101000203166002900480156106275780601f106105fc57610100808354040283529160200191610627565b820191906000526020600020905b81548152906001019060200180831161060a57829003601f168201915b50505050508152602001600282018054600181600116156101000203166002900480601f0160208091040260200160405190810160405280929190818152602001828054600181600116156101000203166002900480156106c95780601f1061069e576101008083540402835291602001916106c9565b820191906000526020600020905b8154815290600101906020018083116106ac57829003601f168201915b50505050508152602001600382015481525050905080600001518160200151826040015183606001518393508292508191509450945094509450509193509193565b6000803373ffffffffffffffffffffffffffffffffffffffff1673ffffffffffffffffffffffffffffffffffffffff168152602001908152602001600020608060405190810160405280868152602001858152602001848152602001838152509080600181540180825580915050906001820390600052602060002090600402016000909192909190915060008201518160000190805190602001906107b2929190610ae4565b5060208201518160010190805190602001906107cf929190610ae4565b5060408201518160020190805190602001906107ec929190610ae4565b506060820151816003015550505050505050565b60008060003373ffffffffffffffffffffffffffffffffffffffff1673ffffffffffffffffffffffffffffffffffffffff1681526020019081526020016000208281548110151561084d57fe5b90600052602060002090600402016000808201600061086c9190610b64565b60018201600061087c9190610b64565b60028201600061088c9190610b64565b600382016000905550506000803373ffffffffffffffffffffffffffffffffffffffff1673ffffffffffffffffffffffffffffffffffffffff1681526020019081526020016000203073ffffffffffffffffffffffffffffffffffffffff1663be1c766b6040518163ffffffff167c010000000000000000000000000000000000000000000000000000000002815260040160206040518083038186803b15801561093657600080fd5b505afa15801561094a573d6000803e3d6000fd5b505050506040513d602081101561096057600080fd5b810190808051906020019092919050505081548110151561097d57fe5b90600052602060002090600402016000803373ffffffffffffffffffffffffffffffffffffffff1673ffffffffffffffffffffffffffffffffffffffff168152602001908152602001600020838154811015156109d657fe5b906000526020600020906004020160008201816000019080546001816001161561010002031660029004610a0b929190610bac565b5060018201816001019080546001816001161561010002031660029004610a33929190610bac565b5060028201816002019080546001816001161561010002031660029004610a5b929190610bac565b506003820154816003015590505060019050919050565b60008060003373ffffffffffffffffffffffffffffffffffffffff1673ffffffffffffffffffffffffffffffffffffffff16815260200190815260200160002080549050905090565b608060405190810160405280606081526020016060815260200160608152602001600081525090565b828054600181600116156101000203166002900490600052602060002090601f016020900481019282601f10610b2557805160ff1916838001178555610b53565b82800160010185558215610b53579182015b82811115610b52578251825591602001919060010190610b37565b5b509050610b609190610c33565b5090565b50805460018160011615610100020316600290046000825580601f10610b8a5750610ba9565b601f016020900490600052602060002090810190610ba89190610c33565b5b50565b828054600181600116156101000203166002900490600052602060002090601f016020900481019282601f10610be55780548555610c22565b82800160010185558215610c2257600052602060002091601f016020900482015b82811115610c21578254825591600101919060010190610c06565b5b509050610c2f9190610c33565b5090565b610c5591905b80821115610c51576000816000905550600101610c39565b5090565b9056fea165627a7a72305820e1d435dfb44cc3c2aedd3788b35ce71eb49f9cf3a3277ce9694531e64bae65a80029",
  "source": "pragma solidity ^0.5.0;\r\n\r\ncontract SolidityDrive {\r\n    struct File {\r\n        string hash;\r\n        string fileName;\r\n        string fileType;\r\n        uint date;\r\n    }\r\n    \r\n    mapping(address => File[]) files;\r\n\r\n    function add(string memory _hash, string memory _fileName, string memory _fileType, uint  _date) public {\r\n        files[msg.sender].push(File({hash: _hash, fileName: _fileName, fileType: _fileType, date: _date}));\r\n    }\r\n\r\n    function getFile(uint _index) public view returns(string memory, string memory, string memory, uint) {\r\n        File memory file = files[msg.sender][_index];\r\n        return (file.hash, file.fileName, file.fileType, file.date);\r\n    }\r\n    \r\n    function getLength() public view returns(uint) {\r\n        return files[msg.sender].length;\r\n    }\r\n    \r\n    function remove(uint _index) public returns(bool success) {\r\n        delete files[msg.sender][_index];\r\n        files[msg.sender][_index] = files[msg.sender][this.getLength()];\r\n        return true;\r\n    }\r\n}",
  "sourcePath": "F:/solidityDrive/contracts/SolidityDrive.sol",
  "compiler": {
    "name": "solc",
    "version": "0.5.0+commit.1d4f565a.Emscripten.clang"
  },
  "schemaVersion": "3.0.3",
  "updatedAt": "2019-03-25T10:20:22.108Z",
  "devdoc": {
    "methods": {}
  },
  "userdoc": {
    "methods": {}
  }
}